{
  "contractName": "RansomwareDetection",
  "abi": [
    {
      "inputs": [],
      "stateMutability": "nonpayable",
      "type": "constructor"
    },
    {
      "anonymous": false,
      "inputs": [
        {
          "indexed": false,
          "internalType": "string",
          "name": "fileHash",
          "type": "string"
        }
      ],
      "name": "DetectionConfirmed",
      "type": "event"
    },
    {
      "anonymous": false,
      "inputs": [
        {
          "indexed": false,
          "internalType": "string",
          "name": "fileHash",
          "type": "string"
        },
        {
          "indexed": false,
          "internalType": "string",
          "name": "timestamp",
          "type": "string"
        },
        {
          "indexed": false,
          "internalType": "address",
          "name": "reporter",
          "type": "address"
        }
      ],
      "name": "NewDetection",
      "type": "event"
    },
    {
      "inputs": [
        {
          "internalType": "string",
          "name": "",
          "type": "string"
        }
      ],
      "name": "detections",
      "outputs": [
        {
          "internalType": "string",
          "name": "fileHash",
          "type": "string"
        },
        {
          "internalType": "string",
          "name": "timestamp",
          "type": "string"
        },
        {
          "internalType": "address",
          "name": "reporter",
          "type": "address"
        },
        {
          "internalType": "bool",
          "name": "isConfirmed",
          "type": "bool"
        }
      ],
      "stateMutability": "view",
      "type": "function",
      "constant": true
    },
    {
      "inputs": [],
      "name": "owner",
      "outputs": [
        {
          "internalType": "address",
          "name": "",
          "type": "address"
        }
      ],
      "stateMutability": "view",
      "type": "function",
      "constant": true
    },
    {
      "inputs": [
        {
          "internalType": "address",
          "name": "",
          "type": "address"
        }
      ],
      "name": "trustedReporters",
      "outputs": [
        {
          "internalType": "bool",
          "name": "",
          "type": "bool"
        }
      ],
      "stateMutability": "view",
      "type": "function",
      "constant": true
    },
    {
      "inputs": [
        {
          "internalType": "address",
          "name": "reporter",
          "type": "address"
        }
      ],
      "name": "addTrustedReporter",
      "outputs": [],
      "stateMutability": "nonpayable",
      "type": "function"
    },
    {
      "inputs": [
        {
          "internalType": "string",
          "name": "fileHash",
          "type": "string"
        },
        {
          "internalType": "string",
          "name": "timestamp",
          "type": "string"
        }
      ],
      "name": "reportDetection",
      "outputs": [],
      "stateMutability": "nonpayable",
      "type": "function"
    },
    {
      "inputs": [
        {
          "internalType": "string",
          "name": "fileHash",
          "type": "string"
        }
      ],
      "name": "confirmDetection",
      "outputs": [],
      "stateMutability": "nonpayable",
      "type": "function"
    },
    {
      "inputs": [
        {
          "internalType": "string",
          "name": "fileHash",
          "type": "string"
        }
      ],
      "name": "getDetection",
      "outputs": [
        {
          "components": [
            {
              "internalType": "string",
              "name": "fileHash",
              "type": "string"
            },
            {
              "internalType": "string",
              "name": "timestamp",
              "type": "string"
            },
            {
              "internalType": "address",
              "name": "reporter",
              "type": "address"
            },
            {
              "internalType": "bool",
              "name": "isConfirmed",
              "type": "bool"
            }
          ],
          "internalType": "struct RansomwareDetection.Detection",
          "name": "",
          "type": "tuple"
        }
      ],
      "stateMutability": "view",
      "type": "function",
      "constant": true
    }
  ],
  "bytecode": "0x608060405234801561001057600080fd5b5033600260006101000a81548173ffffffffffffffffffffffffffffffffffffffff021916908373ffffffffffffffffffffffffffffffffffffffff16021790555060018060003373ffffffffffffffffffffffffffffffffffffffff1673ffffffffffffffffffffffffffffffffffffffff16815260200190815260200160002060006101000a81548160ff021916908315150217905550611369806100b86000396000f3fe608060405234801561001057600080fd5b506004361061007d5760003560e01c80638da5cb5b1161005b5780638da5cb5b14610101578063901136751461011f578063a1fcc73f1461014f578063d0283e771461016b5761007d565b806335cca650146100825780634aef05ed146100b257806371eb5429146100e5575b600080fd5b61009c60048036038101906100979190610c17565b610187565b6040516100a99190611140565b60405180910390f35b6100cc60048036038101906100c79190610c17565b6103c3565b6040516100dc949392919061104d565b60405180910390f35b6100ff60048036038101906100fa9190610c17565b610546565b005b610109610728565b6040516101169190610fb0565b60405180910390f35b61013960048036038101906101349190610bee565b61074e565b6040516101469190610fcb565b60405180910390f35b61016960048036038101906101649190610bee565b61076e565b005b61018560048036038101906101809190610c58565b610858565b005b61018f610a8e565b600080836040516101a09190610f99565b908152602001604051809103902060000180546101bc9061127b565b9050116101fe576040517f08c379a00000000000000000000000000000000000000000000000000000000081526004016101f590611100565b60405180910390fd5b60008260405161020e9190610f99565b90815260200160405180910390206040518060800160405290816000820180546102379061127b565b80601f01602080910402602001604051908101604052809291908181526020018280546102639061127b565b80156102b05780601f10610285576101008083540402835291602001916102b0565b820191906000526020600020905b81548152906001019060200180831161029357829003601f168201915b505050505081526020016001820180546102c99061127b565b80601f01602080910402602001604051908101604052809291908181526020018280546102f59061127b565b80156103425780601f1061031757610100808354040283529160200191610342565b820191906000526020600020905b81548152906001019060200180831161032557829003601f168201915b505050505081526020016002820160009054906101000a900473ffffffffffffffffffffffffffffffffffffffff1673ffffffffffffffffffffffffffffffffffffffff1673ffffffffffffffffffffffffffffffffffffffff1681526020016002820160149054906101000a900460ff1615151515815250509050919050565b6000818051602081018201805184825260208301602085012081835280955050505050506000915090508060000180546103fc9061127b565b80601f01602080910402602001604051908101604052809291908181526020018280546104289061127b565b80156104755780601f1061044a57610100808354040283529160200191610475565b820191906000526020600020905b81548152906001019060200180831161045857829003601f168201915b50505050509080600101805461048a9061127b565b80601f01602080910402602001604051908101604052809291908181526020018280546104b69061127b565b80156105035780601f106104d857610100808354040283529160200191610503565b820191906000526020600020905b8154815290600101906020018083116104e657829003601f168201915b5050505050908060020160009054906101000a900473ffffffffffffffffffffffffffffffffffffffff16908060020160149054906101000a900460ff16905084565b600260009054906101000a900473ffffffffffffffffffffffffffffffffffffffff1673ffffffffffffffffffffffffffffffffffffffff163373ffffffffffffffffffffffffffffffffffffffff16146105d6576040517f08c379a00000000000000000000000000000000000000000000000000000000081526004016105cd90611120565b60405180910390fd5b600080826040516105e79190610f99565b908152602001604051809103902060000180546106039061127b565b905011610645576040517f08c379a000000000000000000000000000000000000000000000000000000000815260040161063c90611100565b60405180910390fd5b6000816040516106559190610f99565b908152602001604051809103902060020160149054906101000a900460ff16156106b4576040517f08c379a00000000000000000000000000000000000000000000000000000000081526004016106ab906110a0565b60405180910390fd5b60016000826040516106c69190610f99565b908152602001604051809103902060020160146101000a81548160ff0219169083151502179055507fb26f3f70c9c4a62ca3872645b53c2aa4bf8c453175b6ae81357dcf82502cd4008160405161071d9190610fe6565b60405180910390a150565b600260009054906101000a900473ffffffffffffffffffffffffffffffffffffffff1681565b60016020528060005260406000206000915054906101000a900460ff1681565b600260009054906101000a900473ffffffffffffffffffffffffffffffffffffffff1673ffffffffffffffffffffffffffffffffffffffff163373ffffffffffffffffffffffffffffffffffffffff16146107fe576040517f08c379a00000000000000000000000000000000000000000000000000000000081526004016107f590611120565b60405180910390fd5b60018060008373ffffffffffffffffffffffffffffffffffffffff1673ffffffffffffffffffffffffffffffffffffffff16815260200190815260200160002060006101000a81548160ff02191690831515021790555050565b600160003373ffffffffffffffffffffffffffffffffffffffff1673ffffffffffffffffffffffffffffffffffffffff16815260200190815260200160002060009054906101000a900460ff166108e4576040517f08c379a00000000000000000000000000000000000000000000000000000000081526004016108db906110c0565b60405180910390fd5b600080836040516108f59190610f99565b908152602001604051809103902060000180546109119061127b565b905014610953576040517f08c379a000000000000000000000000000000000000000000000000000000000815260040161094a906110e0565b60405180910390fd5b60405180608001604052808381526020018281526020013373ffffffffffffffffffffffffffffffffffffffff1681526020016000151581525060008360405161099d9190610f99565b908152602001604051809103902060008201518160000190805190602001906109c7929190610ace565b5060208201518160010190805190602001906109e4929190610ace565b5060408201518160020160006101000a81548173ffffffffffffffffffffffffffffffffffffffff021916908373ffffffffffffffffffffffffffffffffffffffff16021790555060608201518160020160146101000a81548160ff0219169083151502179055509050507fe1c69eaa9245067421526eaa019e126af3b4607f24d5d6be4ef4a39df304cbcf828233604051610a8293929190611008565b60405180910390a15050565b60405180608001604052806060815260200160608152602001600073ffffffffffffffffffffffffffffffffffffffff1681526020016000151581525090565b828054610ada9061127b565b90600052602060002090601f016020900481019282610afc5760008555610b43565b82601f10610b1557805160ff1916838001178555610b43565b82800160010185558215610b43579182015b82811115610b42578251825591602001919060010190610b27565b5b509050610b509190610b54565b5090565b5b80821115610b6d576000816000905550600101610b55565b5090565b6000610b84610b7f84611193565b611162565b905082815260208101848484011115610b9c57600080fd5b610ba7848285611239565b509392505050565b600081359050610bbe8161131c565b92915050565b600082601f830112610bd557600080fd5b8135610be5848260208601610b71565b91505092915050565b600060208284031215610c0057600080fd5b6000610c0e84828501610baf565b91505092915050565b600060208284031215610c2957600080fd5b600082013567ffffffffffffffff811115610c4357600080fd5b610c4f84828501610bc4565b91505092915050565b60008060408385031215610c6b57600080fd5b600083013567ffffffffffffffff811115610c8557600080fd5b610c9185828601610bc4565b925050602083013567ffffffffffffffff811115610cae57600080fd5b610cba85828601610bc4565b9150509250929050565b610ccd816111fb565b82525050565b610cdc816111fb565b82525050565b610ceb8161120d565b82525050565b610cfa8161120d565b82525050565b6000610d0b826111c3565b610d1581856111ce565b9350610d25818560208601611248565b610d2e8161130b565b840191505092915050565b6000610d44826111c3565b610d4e81856111df565b9350610d5e818560208601611248565b610d678161130b565b840191505092915050565b6000610d7d826111c3565b610d8781856111f0565b9350610d97818560208601611248565b80840191505092915050565b6000610db0601b836111df565b91507f446574656374696f6e20616c726561647920636f6e6669726d656400000000006000830152602082019050919050565b6000610df0602e836111df565b91507f4f6e6c792074727573746564207265706f72746572732063616e20706572666f60008301527f726d207468697320616374696f6e0000000000000000000000000000000000006020830152604082019050919050565b6000610e566015836111df565b91507f4861736820616c7265616479207265706f7274656400000000000000000000006000830152602082019050919050565b6000610e966013836111df565b91507f446574656374696f6e206e6f7420666f756e64000000000000000000000000006000830152602082019050919050565b6000610ed66022836111df565b91507f4f6e6c79206f776e65722063616e20706572666f726d2074686973206163746960008301527f6f6e0000000000000000000000000000000000000000000000000000000000006020830152604082019050919050565b60006080830160008301518482036000860152610f4c8282610d00565b91505060208301518482036020860152610f668282610d00565b9150506040830151610f7b6040860182610cc4565b506060830151610f8e6060860182610ce2565b508091505092915050565b6000610fa58284610d72565b915081905092915050565b6000602082019050610fc56000830184610cd3565b92915050565b6000602082019050610fe06000830184610cf1565b92915050565b600060208201905081810360008301526110008184610d39565b905092915050565b600060608201905081810360008301526110228186610d39565b905081810360208301526110368185610d39565b90506110456040830184610cd3565b949350505050565b600060808201905081810360008301526110678187610d39565b9050818103602083015261107b8186610d39565b905061108a6040830185610cd3565b6110976060830184610cf1565b95945050505050565b600060208201905081810360008301526110b981610da3565b9050919050565b600060208201905081810360008301526110d981610de3565b9050919050565b600060208201905081810360008301526110f981610e49565b9050919050565b6000602082019050818103600083015261111981610e89565b9050919050565b6000602082019050818103600083015261113981610ec9565b9050919050565b6000602082019050818103600083015261115a8184610f2f565b905092915050565b6000604051905081810181811067ffffffffffffffff82111715611189576111886112dc565b5b8060405250919050565b600067ffffffffffffffff8211156111ae576111ad6112dc565b5b601f19601f8301169050602081019050919050565b600081519050919050565b600082825260208201905092915050565b600082825260208201905092915050565b600081905092915050565b600061120682611219565b9050919050565b60008115159050919050565b600073ffffffffffffffffffffffffffffffffffffffff82169050919050565b82818337600083830152505050565b60005b8381101561126657808201518184015260208101905061124b565b83811115611275576000848401525b50505050565b6000600282049050600182168061129357607f821691505b602082108114156112a7576112a66112ad565b5b50919050565b7f4e487b7100000000000000000000000000000000000000000000000000000000600052602260045260246000fd5b7f4e487b7100000000000000000000000000000000000000000000000000000000600052604160045260246000fd5b6000601f19601f8301169050919050565b611325816111fb565b811461133057600080fd5b5056fea26469706673582212207feb38d7af539f8b803006823e1105ccfde422dcb356906372e4a874d3a7c40f64736f6c63430008000033",
  "immutableReferences": {},
  "source": "// SPDX-License-Identifier: MIT\r\npragma solidity ^0.8.0;\r\n\r\ncontract RansomwareDetection {\r\n    struct Detection {\r\n        string fileHash;\r\n        string timestamp;\r\n        address reporter;\r\n        bool isConfirmed;\r\n    }\r\n    \r\n    mapping(string => Detection) public detections;\r\n    mapping(address => bool) public trustedReporters;\r\n    address public owner;\r\n    \r\n    event NewDetection(string fileHash, string timestamp, address reporter);\r\n    event DetectionConfirmed(string fileHash);\r\n    \r\n    constructor() {\r\n        owner = msg.sender;\r\n        trustedReporters[msg.sender] = true;\r\n    }\r\n    \r\n    modifier onlyOwner() {\r\n        require(msg.sender == owner, \"Only owner can perform this action\");\r\n        _;\r\n    }\r\n    \r\n    modifier onlyTrustedReporter() {\r\n        require(trustedReporters[msg.sender], \"Only trusted reporters can perform this action\");\r\n        _;\r\n    }\r\n    \r\n    function addTrustedReporter(address reporter) public onlyOwner {\r\n        trustedReporters[reporter] = true;\r\n    }\r\n    \r\n    function reportDetection(string memory fileHash, string memory timestamp) public onlyTrustedReporter {\r\n        require(bytes(detections[fileHash].fileHash).length == 0, \"Hash already reported\");\r\n        \r\n        detections[fileHash] = Detection({\r\n            fileHash: fileHash,\r\n            timestamp: timestamp,\r\n            reporter: msg.sender,\r\n            isConfirmed: false\r\n        });\r\n        \r\n        emit NewDetection(fileHash, timestamp, msg.sender);\r\n    }\r\n    \r\n    function confirmDetection(string memory fileHash) public onlyOwner {\r\n        require(bytes(detections[fileHash].fileHash).length > 0, \"Detection not found\");\r\n        require(!detections[fileHash].isConfirmed, \"Detection already confirmed\");\r\n        \r\n        detections[fileHash].isConfirmed = true;\r\n        emit DetectionConfirmed(fileHash);\r\n    }\r\n    \r\n    function getDetection(string memory fileHash) public view returns (Detection memory) {\r\n        require(bytes(detections[fileHash].fileHash).length > 0, \"Detection not found\");\r\n        return detections[fileHash];\r\n    }\r\n}",
  "sourcePath": "C:/Users/brand/vsc/RansomwareDetection/contracts/RansomwareDetection.sol",
  "compiler": {
    "name": "solc",
    "version": "0.8.0+commit.c7dfd78e.Emscripten.clang"
  },
  "schemaVersion": "3.3.4",
  "updatedAt": "2024-10-26T10:21:06.150Z",
  "networkType": "ethereum",
  "devdoc": {
    "kind": "dev",
    "methods": {},
    "version": 1
  },
  "userdoc": {
    "kind": "user",
    "methods": {},
    "version": 1
  }
}